{
  "contractName": "PolyZKVote",
  "abi": [
    {
      "inputs": [
        {
          "components": [
            {
              "internalType": "address",
              "name": "contractAddress",
              "type": "address"
            },
            {
              "internalType": "uint8",
              "name": "merkleTreeDepth",
              "type": "uint8"
            }
          ],
          "internalType": "struct IPolyZKVote.Verifier[]",
          "name": "_verifiers",
          "type": "tuple[]"
        }
      ],
      "stateMutability": "nonpayable",
      "type": "constructor"
    },
    {
      "anonymous": false,
      "inputs": [
        {
          "indexed": false,
          "internalType": "uint256",
          "name": "nullifierHash",
          "type": "uint256"
        }
      ],
      "name": "NullifierHashAdded",
      "type": "event"
    },
    {
      "inputs": [
        {
          "internalType": "uint256",
          "name": "groupId",
          "type": "uint256"
        }
      ],
      "name": "getGroup",
      "outputs": [
        {
          "components": [
            {
              "internalType": "bytes32",
              "name": "provider",
              "type": "bytes32"
            },
            {
              "internalType": "bytes32",
              "name": "name",
              "type": "bytes32"
            },
            {
              "internalType": "uint256",
              "name": "root",
              "type": "uint256"
            },
            {
              "internalType": "uint256",
              "name": "channelID",
              "type": "uint256"
            },
            {
              "internalType": "uint8",
              "name": "depth",
              "type": "uint8"
            },
            {
              "internalType": "string",
              "name": "CID",
              "type": "string"
            },
            {
              "internalType": "string",
              "name": "role",
              "type": "string"
            }
          ],
          "internalType": "struct IPolyZKVote.Group",
          "name": "group",
          "type": "tuple"
        }
      ],
      "stateMutability": "view",
      "type": "function",
      "constant": true
    },
    {
      "inputs": [
        {
          "internalType": "uint256",
          "name": "groupId",
          "type": "uint256"
        },
        {
          "internalType": "uint256",
          "name": "pollId",
          "type": "uint256"
        }
      ],
      "name": "getProposal",
      "outputs": [
        {
          "components": [
            {
              "internalType": "bytes32",
              "name": "name",
              "type": "bytes32"
            },
            {
              "internalType": "uint256",
              "name": "root",
              "type": "uint256"
            },
            {
              "internalType": "address",
              "name": "coordinator",
              "type": "address"
            },
            {
              "internalType": "uint8",
              "name": "depth",
              "type": "uint8"
            },
            {
              "internalType": "string",
              "name": "CID",
              "type": "string"
            },
            {
              "internalType": "enum IPolyZKVote.PollState",
              "name": "state",
              "type": "uint8"
            }
          ],
          "internalType": "struct IPolyZKVote.Proposal",
          "name": "proposal",
          "type": "tuple"
        }
      ],
      "stateMutability": "view",
      "type": "function",
      "constant": true
    },
    {
      "inputs": [
        {
          "components": [
            {
              "internalType": "bytes32",
              "name": "provider",
              "type": "bytes32"
            },
            {
              "internalType": "bytes32",
              "name": "name",
              "type": "bytes32"
            },
            {
              "internalType": "uint256",
              "name": "root",
              "type": "uint256"
            },
            {
              "internalType": "uint256",
              "name": "channelID",
              "type": "uint256"
            },
            {
              "internalType": "uint8",
              "name": "depth",
              "type": "uint8"
            },
            {
              "internalType": "string",
              "name": "CID",
              "type": "string"
            },
            {
              "internalType": "string",
              "name": "role",
              "type": "string"
            }
          ],
          "internalType": "struct IPolyZKVote.Group",
          "name": "_group",
          "type": "tuple"
        },
        {
          "internalType": "uint256",
          "name": "_groupId",
          "type": "uint256"
        },
        {
          "internalType": "uint256",
          "name": "_identity",
          "type": "uint256"
        },
        {
          "internalType": "bool",
          "name": "_type",
          "type": "bool"
        }
      ],
      "name": "updateGroup",
      "outputs": [],
      "stateMutability": "nonpayable",
      "type": "function"
    },
    {
      "inputs": [
        {
          "internalType": "uint256",
          "name": "_identity",
          "type": "uint256"
        }
      ],
      "name": "getJoinedDAOMember",
      "outputs": [
        {
          "internalType": "uint256[]",
          "name": "_allGroup",
          "type": "uint256[]"
        }
      ],
      "stateMutability": "view",
      "type": "function",
      "constant": true
    },
    {
      "inputs": [
        {
          "internalType": "uint256",
          "name": "_identity",
          "type": "uint256"
        }
      ],
      "name": "getCreatedDAOMember",
      "outputs": [
        {
          "internalType": "uint256[]",
          "name": "_allGroup",
          "type": "uint256[]"
        }
      ],
      "stateMutability": "view",
      "type": "function",
      "constant": true
    },
    {
      "inputs": [
        {
          "internalType": "uint256",
          "name": "_groupId",
          "type": "uint256"
        }
      ],
      "name": "getGroupProposal",
      "outputs": [
        {
          "internalType": "uint256[]",
          "name": "_allProposal",
          "type": "uint256[]"
        }
      ],
      "stateMutability": "view",
      "type": "function",
      "constant": true
    },
    {
      "inputs": [
        {
          "internalType": "uint256",
          "name": "_groupId",
          "type": "uint256"
        },
        {
          "internalType": "uint256",
          "name": "_pollId",
          "type": "uint256"
        }
      ],
      "name": "getProposalTovoter",
      "outputs": [
        {
          "internalType": "uint256[]",
          "name": "_allVoter",
          "type": "uint256[]"
        }
      ],
      "stateMutability": "view",
      "type": "function",
      "constant": true
    },
    {
      "inputs": [
        {
          "internalType": "uint256",
          "name": "_pollId",
          "type": "uint256"
        }
      ],
      "name": "addedVoterStatus",
      "outputs": [
        {
          "internalType": "bool",
          "name": "status",
          "type": "bool"
        }
      ],
      "stateMutability": "view",
      "type": "function",
      "constant": true
    },
    {
      "inputs": [],
      "name": "getIdentity",
      "outputs": [
        {
          "internalType": "uint256[]",
          "name": "_allIdentity",
          "type": "uint256[]"
        }
      ],
      "stateMutability": "view",
      "type": "function",
      "constant": true
    },
    {
      "inputs": [
        {
          "internalType": "uint256",
          "name": "groupId",
          "type": "uint256"
        }
      ],
      "name": "getMemberToGroup",
      "outputs": [
        {
          "internalType": "uint256[]",
          "name": "_groupMember",
          "type": "uint256[]"
        }
      ],
      "stateMutability": "view",
      "type": "function",
      "constant": true
    },
    {
      "inputs": [
        {
          "internalType": "uint256",
          "name": "_identity",
          "type": "uint256"
        },
        {
          "internalType": "uint256",
          "name": "groupId",
          "type": "uint256"
        },
        {
          "internalType": "uint256",
          "name": "_pollId",
          "type": "uint256"
        },
        {
          "components": [
            {
              "internalType": "bytes32",
              "name": "name",
              "type": "bytes32"
            },
            {
              "internalType": "uint256",
              "name": "root",
              "type": "uint256"
            },
            {
              "internalType": "address",
              "name": "coordinator",
              "type": "address"
            },
            {
              "internalType": "uint8",
              "name": "depth",
              "type": "uint8"
            },
            {
              "internalType": "string",
              "name": "CID",
              "type": "string"
            },
            {
              "internalType": "enum IPolyZKVote.PollState",
              "name": "state",
              "type": "uint8"
            }
          ],
          "internalType": "struct IPolyZKVote.Proposal",
          "name": "_proposal",
          "type": "tuple"
        }
      ],
      "name": "createPoll",
      "outputs": [],
      "stateMutability": "nonpayable",
      "type": "function"
    },
    {
      "inputs": [
        {
          "internalType": "uint256",
          "name": "groupId",
          "type": "uint256"
        },
        {
          "internalType": "uint256",
          "name": "pollId",
          "type": "uint256"
        },
        {
          "internalType": "uint256",
          "name": "_root",
          "type": "uint256"
        }
      ],
      "name": "addVoter",
      "outputs": [],
      "stateMutability": "nonpayable",
      "type": "function"
    },
    {
      "inputs": [
        {
          "internalType": "uint256",
          "name": "groupId",
          "type": "uint256"
        },
        {
          "internalType": "uint256",
          "name": "pollId",
          "type": "uint256"
        },
        {
          "internalType": "uint256",
          "name": "_encryptionKey",
          "type": "uint256"
        }
      ],
      "name": "startPoll",
      "outputs": [],
      "stateMutability": "nonpayable",
      "type": "function"
    },
    {
      "inputs": [
        {
          "internalType": "bytes32",
          "name": "_vote",
          "type": "bytes32"
        },
        {
          "internalType": "uint256",
          "name": "_identity",
          "type": "uint256"
        },
        {
          "internalType": "uint256",
          "name": "nullifierHash",
          "type": "uint256"
        },
        {
          "internalType": "uint256",
          "name": "pollId",
          "type": "uint256"
        },
        {
          "internalType": "uint256",
          "name": "groupId",
          "type": "uint256"
        },
        {
          "internalType": "uint256[8]",
          "name": "proof",
          "type": "uint256[8]"
        }
      ],
      "name": "castVote",
      "outputs": [],
      "stateMutability": "nonpayable",
      "type": "function"
    },
    {
      "inputs": [
        {
          "internalType": "uint256",
          "name": "groupId",
          "type": "uint256"
        },
        {
          "internalType": "uint256",
          "name": "pollId",
          "type": "uint256"
        },
        {
          "internalType": "uint256",
          "name": "decryptionKey",
          "type": "uint256"
        }
      ],
      "name": "endPoll",
      "outputs": [],
      "stateMutability": "nonpayable",
      "type": "function"
    },
    {
      "inputs": [
        {
          "internalType": "uint256",
          "name": "groupId",
          "type": "uint256"
        },
        {
          "internalType": "uint256",
          "name": "pollId",
          "type": "uint256"
        }
      ],
      "name": "getVote",
      "outputs": [
        {
          "internalType": "uint256",
          "name": "_vote",
          "type": "uint256"
        }
      ],
      "stateMutability": "view",
      "type": "function",
      "constant": true
    },
    {
      "inputs": [
        {
          "internalType": "uint256",
          "name": "_identity",
          "type": "uint256"
        },
        {
          "internalType": "uint256",
          "name": "groupId",
          "type": "uint256"
        },
        {
          "internalType": "uint256",
          "name": "pollId",
          "type": "uint256"
        }
      ],
      "name": "getUserRating",
      "outputs": [
        {
          "internalType": "bytes32",
          "name": "_vote",
          "type": "bytes32"
        }
      ],
      "stateMutability": "view",
      "type": "function",
      "constant": true
    }
  ],
  "bytecode": "0x60806040523480156200001157600080fd5b5060405162003ea138038062003ea18339818101604052810190620000379190620003d0565b60005b81518160ff161015620000fd57818160ff168151811062000060576200005f62000421565b5b602002602001015160000151600c6000848460ff168151811062000089576200008862000421565b5b60200260200101516020015160ff1660ff16815260200190815260200160002060006101000a81548173ffffffffffffffffffffffffffffffffffffffff021916908373ffffffffffffffffffffffffffffffffffffffff1602179055508080620000f4906200047f565b9150506200003a565b5033600360006101000a81548173ffffffffffffffffffffffffffffffffffffffff021916908373ffffffffffffffffffffffffffffffffffffffff16021790555050620004ae565b6000604051905090565b600080fd5b600080fd5b600080fd5b6000601f19601f8301169050919050565b7f4e487b7100000000000000000000000000000000000000000000000000000000600052604160045260246000fd5b620001aa826200015f565b810181811067ffffffffffffffff82111715620001cc57620001cb62000170565b5b80604052505050565b6000620001e162000146565b9050620001ef82826200019f565b919050565b600067ffffffffffffffff82111562000212576200021162000170565b5b602082029050602081019050919050565b600080fd5b600080fd5b600073ffffffffffffffffffffffffffffffffffffffff82169050919050565b60006200025a826200022d565b9050919050565b6200026c816200024d565b81146200027857600080fd5b50565b6000815190506200028c8162000261565b92915050565b600060ff82169050919050565b620002aa8162000292565b8114620002b657600080fd5b50565b600081519050620002ca816200029f565b92915050565b600060408284031215620002e957620002e862000228565b5b620002f56040620001d5565b9050600062000307848285016200027b565b60008301525060206200031d84828501620002b9565b60208301525092915050565b6000620003406200033a84620001f4565b620001d5565b9050808382526020820190506040840283018581111562000366576200036562000223565b5b835b818110156200039357806200037e8882620002d0565b84526020840193505060408101905062000368565b5050509392505050565b600082601f830112620003b557620003b46200015a565b5b8151620003c784826020860162000329565b91505092915050565b600060208284031215620003e957620003e862000150565b5b600082015167ffffffffffffffff8111156200040a576200040962000155565b5b62000418848285016200039d565b91505092915050565b7f4e487b7100000000000000000000000000000000000000000000000000000000600052603260045260246000fd5b7f4e487b7100000000000000000000000000000000000000000000000000000000600052601160045260246000fd5b60006200048c8262000292565b915060ff821415620004a357620004a262000450565b5b600182019050919050565b6139e380620004be6000396000f3fe608060405234801561001057600080fd5b506004361061010b5760003560e01c806390cca5c6116100a2578063c504280a11610071578063c504280a146102ee578063ca3c495f1461030a578063ceb606541461033a578063f67a93e21461036a578063fc97e3061461039a5761010b565b806390cca5c61461022e578063aba210091461025e578063b19d778a1461028e578063c0bce22f146102be5761010b565b80634488b726116100de5780634488b7261461019657806349330cb8146101b25780637134c7a3146101e25780638a62ca0d146102125761010b565b806321c79f4f1461011057806332ed3d601461012c5780633575a0861461014857806336afc6fa14610178575b600080fd5b61012a6004803603810190610125919061209e565b6103b6565b005b6101466004803603810190610141919061209e565b6105c5565b005b610162600480360381019061015d91906120f1565b610797565b60405161016f91906121dc565b60405180910390f35b610180610897565b60405161018d91906121dc565b60405180910390f35b6101b060048036038101906101ab9190612222565b610981565b005b6101cc60048036038101906101c791906122a5565b610a69565b6040516101d991906122f4565b60405180910390f35b6101fc60048036038101906101f791906120f1565b610bc4565b60405161020991906121dc565b60405180910390f35b61022c6004803603810190610227919061236c565b610cc4565b005b610248600480360381019061024391906120f1565b611031565b6040516102559190612415565b60405180910390f35b610278600480360381019061027391906122a5565b6110ed565b6040516102859190612635565b60405180910390f35b6102a860048036038101906102a391906122a5565b611312565b6040516102b591906121dc565b60405180910390f35b6102d860048036038101906102d391906120f1565b611424565b6040516102e591906121dc565b60405180910390f35b610308600480360381019061030391906126a2565b611524565b005b610324600480360381019061031f91906120f1565b611719565b60405161033191906121dc565b60405180910390f35b610354600480360381019061034f91906120f1565b611819565b60405161036191906127c8565b60405180910390f35b610384600480360381019061037f919061209e565b611a41565b60405161039191906127f9565b60405180910390f35b6103b460048036038101906103af919061209e565b611b14565b005b82823373ffffffffffffffffffffffffffffffffffffffff16600d6000848152602001908152602001600020600083815260200190815260200160002060020160009054906101000a900473ffffffffffffffffffffffffffffffffffffffff1673ffffffffffffffffffffffffffffffffffffffff161461046d576040517f08c379a000000000000000000000000000000000000000000000000000000000815260040161046490612897565b60405180910390fd5b6001600281111561048157610480612535565b5b600d6000878152602001908152602001600020600086815260200190815260200160002060040160009054906101000a900460ff1660028111156104c8576104c7612535565b5b14610508576040517f08c379a00000000000000000000000000000000000000000000000000000000081526004016104ff90612903565b60405180910390fd5b82600e60008781526020019081526020016000206000868152602001908152602001600020541461056e576040517f08c379a00000000000000000000000000000000000000000000000000000000081526004016105659061296f565b60405180910390fd5b6002600d6000878152602001908152602001600020600086815260200190815260200160002060040160006101000a81548160ff021916908360028111156105b9576105b8612535565b5b02179055505050505050565b82823373ffffffffffffffffffffffffffffffffffffffff16600d6000848152602001908152602001600020600083815260200190815260200160002060020160009054906101000a900473ffffffffffffffffffffffffffffffffffffffff1673ffffffffffffffffffffffffffffffffffffffff161461067c576040517f08c379a000000000000000000000000000000000000000000000000000000000815260040161067390612897565b60405180910390fd5b600060028111156106905761068f612535565b5b600d6000878152602001908152602001600020600086815260200190815260200160002060040160009054906101000a900460ff1660028111156106d7576106d6612535565b5b14610717576040517f08c379a000000000000000000000000000000000000000000000000000000000815260040161070e90612a01565b60405180910390fd5b6001600d6000878152602001908152602001600020600086815260200190815260200160002060040160006101000a81548160ff0219169083600281111561076257610761612535565b5b021790555082600e60008781526020019081526020016000206000868152602001908152602001600020819055505050505050565b6060338073ffffffffffffffffffffffffffffffffffffffff16600360009054906101000a900473ffffffffffffffffffffffffffffffffffffffff1673ffffffffffffffffffffffffffffffffffffffff161461082a576040517f08c379a000000000000000000000000000000000000000000000000000000000815260040161082190612a6d565b60405180910390fd5b6007600084815260200190815260200160002060000180548060200260200160405190810160405280929190818152602001828054801561088a57602002820191906000526020600020905b815481526020019060010190808311610876575b5050505050915050919050565b6060338073ffffffffffffffffffffffffffffffffffffffff16600360009054906101000a900473ffffffffffffffffffffffffffffffffffffffff1673ffffffffffffffffffffffffffffffffffffffff161461092a576040517f08c379a000000000000000000000000000000000000000000000000000000000815260040161092190612a6d565b60405180910390fd5b600480548060200260200160405190810160405280929190818152602001828054801561097657602002820191906000526020600020905b815481526020019060010190808311610962575b505050505091505090565b600b6000858152602001908152602001600020600084815260200190815260200160002060009054906101000a900460ff166109f2576040517f08c379a00000000000000000000000000000000000000000000000000000000081526004016109e990612aff565b60405180910390fd5b80600d600085815260200190815260200160002060008481526020019081526020016000208181610a239190613292565b9050506008600084815260200190815260200160002060000182908060018154018082558091505060019003906000526020600020016000909190919091505550505050565b6000338073ffffffffffffffffffffffffffffffffffffffff16600360009054906101000a900473ffffffffffffffffffffffffffffffffffffffff1673ffffffffffffffffffffffffffffffffffffffff1614610afc576040517f08c379a0000000000000000000000000000000000000000000000000000000008152600401610af390612a6d565b60405180910390fd5b600280811115610b0f57610b0e612535565b5b600d6000868152602001908152602001600020600085815260200190815260200160002060040160009054906101000a900460ff166002811115610b5657610b55612535565b5b14610b96576040517f08c379a0000000000000000000000000000000000000000000000000000000008152600401610b8d906132ec565b60405180910390fd5b600f600085815260200190815260200160002060008481526020019081526020016000205491505092915050565b6060338073ffffffffffffffffffffffffffffffffffffffff16600360009054906101000a900473ffffffffffffffffffffffffffffffffffffffff1673ffffffffffffffffffffffffffffffffffffffff1614610c57576040517f08c379a0000000000000000000000000000000000000000000000000000000008152600401610c4e90612a6d565b60405180910390fd5b60066000848152602001908152602001600020600001805480602002602001604051908101604052809291908181526020018280548015610cb757602002820191906000526020600020905b815481526020019060010190808311610ca3575b5050505050915050919050565b338073ffffffffffffffffffffffffffffffffffffffff16600360009054906101000a900473ffffffffffffffffffffffffffffffffffffffff1673ffffffffffffffffffffffffffffffffffffffff1614610d55576040517f08c379a0000000000000000000000000000000000000000000000000000000008152600401610d4c90612a6d565b60405180910390fd5b6000600d600085815260200190815260200160002060008681526020019081526020016000206040518060c001604052908160008201548152602001600182015481526020016002820160009054906101000a900473ffffffffffffffffffffffffffffffffffffffff1673ffffffffffffffffffffffffffffffffffffffff1673ffffffffffffffffffffffffffffffffffffffff1681526020016002820160149054906101000a900460ff1660ff1660ff168152602001600382018054610e1d90612eb8565b80601f0160208091040260200160405190810160405280929190818152602001828054610e4990612eb8565b8015610e965780601f10610e6b57610100808354040283529160200191610e96565b820191906000526020600020905b815481529060010190602001808311610e7957829003601f168201915b505050505081526020016004820160009054906101000a900460ff166002811115610ec457610ec3612535565b5b6002811115610ed657610ed5612535565b5b81525050905060016002811115610ef057610eef612535565b5b8160a001516002811115610f0757610f06612535565b5b14610f47576040517f08c379a0000000000000000000000000000000000000000000000000000000008152600401610f3e9061337e565b60405180910390fd5b6000816060015190506000826020015190506000600c60008460ff1660ff16815260200190815260200160002060009054906101000a900473ffffffffffffffffffffffffffffffffffffffff169050610fa58b838b8b8a86611d26565b610fae89611f4f565b6001600f600089815260200190815260200160002060008a81526020019081526020016000206000828254610fe391906133cd565b925050819055508a601060008c8152602001908152602001600020600089815260200190815260200160002060008a8152602001908152602001600020819055505050505050505050505050565b6000338073ffffffffffffffffffffffffffffffffffffffff16600360009054906101000a900473ffffffffffffffffffffffffffffffffffffffff1673ffffffffffffffffffffffffffffffffffffffff16146110c4576040517f08c379a00000000000000000000000000000000000000000000000000000000081526004016110bb90612a6d565b60405180910390fd5b6009600084815260200190815260200160002060009054906101000a900460ff16915050919050565b6110f5611fb4565b338073ffffffffffffffffffffffffffffffffffffffff16600360009054906101000a900473ffffffffffffffffffffffffffffffffffffffff1673ffffffffffffffffffffffffffffffffffffffff1614611186576040517f08c379a000000000000000000000000000000000000000000000000000000000815260040161117d90612a6d565b60405180910390fd5b600d600085815260200190815260200160002060008481526020019081526020016000206040518060c001604052908160008201548152602001600182015481526020016002820160009054906101000a900473ffffffffffffffffffffffffffffffffffffffff1673ffffffffffffffffffffffffffffffffffffffff1673ffffffffffffffffffffffffffffffffffffffff1681526020016002820160149054906101000a900460ff1660ff1660ff16815260200160038201805461124c90612eb8565b80601f016020809104026020016040519081016040528092919081815260200182805461127890612eb8565b80156112c55780601f1061129a576101008083540402835291602001916112c5565b820191906000526020600020905b8154815290600101906020018083116112a857829003601f168201915b505050505081526020016004820160009054906101000a900460ff1660028111156112f3576112f2612535565b5b600281111561130557611304612535565b5b8152505091505092915050565b6060338073ffffffffffffffffffffffffffffffffffffffff16600360009054906101000a900473ffffffffffffffffffffffffffffffffffffffff1673ffffffffffffffffffffffffffffffffffffffff16146113a5576040517f08c379a000000000000000000000000000000000000000000000000000000000815260040161139c90612a6d565b60405180910390fd5b600a6000858152602001908152602001600020600084815260200190815260200160002060000180548060200260200160405190810160405280929190818152602001828054801561141657602002820191906000526020600020905b815481526020019060010190808311611402575b505050505091505092915050565b6060338073ffffffffffffffffffffffffffffffffffffffff16600360009054906101000a900473ffffffffffffffffffffffffffffffffffffffff1673ffffffffffffffffffffffffffffffffffffffff16146114b7576040517f08c379a00000000000000000000000000000000000000000000000000000000081526004016114ae90612a6d565b60405180910390fd5b6008600084815260200190815260200160002060000180548060200260200160405190810160405280929190818152602001828054801561151757602002820191906000526020600020905b815481526020019060010190808311611503575b5050505050915050919050565b338073ffffffffffffffffffffffffffffffffffffffff16600360009054906101000a900473ffffffffffffffffffffffffffffffffffffffff1673ffffffffffffffffffffffffffffffffffffffff16146115b5576040517f08c379a00000000000000000000000000000000000000000000000000000000081526004016115ac90612a6d565b60405180910390fd5b846001600086815260200190815260200160002081816115d59190613531565b905050600184141561160f576004839080600181540180825580915050600190039060005260206000200160009091909190915055611712565b60011515821515141561169757600760008481526020019081526020016000206000018490806001815401808255809150506001900390600052602060002001600090919091909150556001600b6000858152602001908152602001600020600086815260200190815260200160002060006101000a81548160ff0219169083151502179055505b60056000858152602001908152602001600020600001839080600181540180825580915050600190039060005260206000200160009091909190915055600660008481526020019081526020016000206000018490806001815401808255809150506001900390600052602060002001600090919091909150555b5050505050565b6060338073ffffffffffffffffffffffffffffffffffffffff16600360009054906101000a900473ffffffffffffffffffffffffffffffffffffffff1673ffffffffffffffffffffffffffffffffffffffff16146117ac576040517f08c379a00000000000000000000000000000000000000000000000000000000081526004016117a390612a6d565b60405180910390fd5b6005600084815260200190815260200160002060000180548060200260200160405190810160405280929190818152602001828054801561180c57602002820191906000526020600020905b8154815260200190600101908083116117f8575b5050505050915050919050565b611821612018565b338073ffffffffffffffffffffffffffffffffffffffff16600360009054906101000a900473ffffffffffffffffffffffffffffffffffffffff1673ffffffffffffffffffffffffffffffffffffffff16146118b2576040517f08c379a00000000000000000000000000000000000000000000000000000000081526004016118a990612a6d565b60405180910390fd5b600160008481526020019081526020016000206040518060e0016040529081600082015481526020016001820154815260200160028201548152602001600382015481526020016004820160009054906101000a900460ff1660ff1660ff16815260200160058201805461192590612eb8565b80601f016020809104026020016040519081016040528092919081815260200182805461195190612eb8565b801561199e5780601f106119735761010080835404028352916020019161199e565b820191906000526020600020905b81548152906001019060200180831161198157829003601f168201915b505050505081526020016006820180546119b790612eb8565b80601f01602080910402602001604051908101604052809291908181526020018280546119e390612eb8565b8015611a305780601f10611a0557610100808354040283529160200191611a30565b820191906000526020600020905b815481529060010190602001808311611a1357829003601f168201915b505050505081525050915050919050565b6000338073ffffffffffffffffffffffffffffffffffffffff16600360009054906101000a900473ffffffffffffffffffffffffffffffffffffffff1673ffffffffffffffffffffffffffffffffffffffff1614611ad4576040517f08c379a0000000000000000000000000000000000000000000000000000000008152600401611acb90612a6d565b60405180910390fd5b6010600086815260200190815260200160002060008581526020019081526020016000206000848152602001908152602001600020549150509392505050565b82823373ffffffffffffffffffffffffffffffffffffffff16600d6000848152602001908152602001600020600083815260200190815260200160002060020160009054906101000a900473ffffffffffffffffffffffffffffffffffffffff1673ffffffffffffffffffffffffffffffffffffffff1614611bcb576040517f08c379a0000000000000000000000000000000000000000000000000000000008152600401611bc290612897565b60405180910390fd5b60006002811115611bdf57611bde612535565b5b600d6000878152602001908152602001600020600086815260200190815260200160002060040160009054906101000a900460ff166002811115611c2657611c25612535565b5b14611c66576040517f08c379a0000000000000000000000000000000000000000000000000000000008152600401611c5d906135b1565b60405180910390fd5b6009600085815260200190815260200160002060009054906101000a900460ff1615611cc7576040517f08c379a0000000000000000000000000000000000000000000000000000000008152600401611cbe90613643565b60405180910390fd5b60016009600086815260200190815260200160002060006101000a81548160ff02191690831515021790555082600d60008781526020019081526020016000206000868152602001908152602001600020600101819055505050505050565b60008085815260200190815260200160002060009054906101000a900460ff1615611d86576040517f08c379a0000000000000000000000000000000000000000000000000000000008152600401611d7d906136d5565b60405180910390fd5b6000611d9187611f7d565b90508173ffffffffffffffffffffffffffffffffffffffff16635fe8c13b604051806040016040528086600060088110611dce57611dcd6136f5565b5b6020020135815260200186600160088110611dec57611deb6136f5565b5b60200201358152506040518060400160405280604051806040016040528089600260088110611e1e57611e1d6136f5565b5b6020020135815260200189600360088110611e3c57611e3b6136f5565b5b60200201358152508152602001604051806040016040528089600460088110611e6857611e676136f5565b5b6020020135815260200189600560088110611e8657611e856136f5565b5b6020020135815250815250604051806040016040528088600660088110611eb057611eaf6136f5565b5b6020020135815260200188600760088110611ece57611ecd6136f5565b5b602002013581525060405180608001604052808c81526020018b81526020018781526020018a8152506040518563ffffffff1660e01b8152600401611f16949392919061392a565b60006040518083038186803b158015611f2e57600080fd5b505afa158015611f42573d6000803e3d6000fd5b5050505050505050505050565b600160008083815260200190815260200160002060006101000a81548160ff02191690831515021790555050565b6000600882604051602001611f929190613992565b6040516020818303038152906040528051906020012060001c901c9050919050565b6040518060c001604052806000801916815260200160008152602001600073ffffffffffffffffffffffffffffffffffffffff168152602001600060ff168152602001606081526020016000600281111561201257612011612535565b5b81525090565b6040518060e0016040528060008019168152602001600080191681526020016000815260200160008152602001600060ff16815260200160608152602001606081525090565b600080fd5b600080fd5b6000819050919050565b61207b81612068565b811461208657600080fd5b50565b60008135905061209881612072565b92915050565b6000806000606084860312156120b7576120b661205e565b5b60006120c586828701612089565b93505060206120d686828701612089565b92505060406120e786828701612089565b9150509250925092565b6000602082840312156121075761210661205e565b5b600061211584828501612089565b91505092915050565b600081519050919050565b600082825260208201905092915050565b6000819050602082019050919050565b61215381612068565b82525050565b6000612165838361214a565b60208301905092915050565b6000602082019050919050565b60006121898261211e565b6121938185612129565b935061219e8361213a565b8060005b838110156121cf5781516121b68882612159565b97506121c183612171565b9250506001810190506121a2565b5085935050505092915050565b600060208201905081810360008301526121f6818461217e565b905092915050565b600080fd5b600060c08284031215612219576122186121fe565b5b81905092915050565b6000806000806080858703121561223c5761223b61205e565b5b600061224a87828801612089565b945050602061225b87828801612089565b935050604061226c87828801612089565b925050606085013567ffffffffffffffff81111561228d5761228c612063565b5b61229987828801612203565b91505092959194509250565b600080604083850312156122bc576122bb61205e565b5b60006122ca85828601612089565b92505060206122db85828601612089565b9150509250929050565b6122ee81612068565b82525050565b600060208201905061230960008301846122e5565b92915050565b6000819050919050565b6123228161230f565b811461232d57600080fd5b50565b60008135905061233f81612319565b92915050565b600080fd5b60008190508260206008028201111561236657612365612345565b5b92915050565b6000806000806000806101a0878903121561238a5761238961205e565b5b600061239889828a01612330565b96505060206123a989828a01612089565b95505060406123ba89828a01612089565b94505060606123cb89828a01612089565b93505060806123dc89828a01612089565b92505060a06123ed89828a0161234a565b9150509295509295509295565b60008115159050919050565b61240f816123fa565b82525050565b600060208201905061242a6000830184612406565b92915050565b6124398161230f565b82525050565b600073ffffffffffffffffffffffffffffffffffffffff82169050919050565b600061246a8261243f565b9050919050565b61247a8161245f565b82525050565b600060ff82169050919050565b61249681612480565b82525050565b600081519050919050565b600082825260208201905092915050565b60005b838110156124d65780820151818401526020810190506124bb565b838111156124e5576000848401525b50505050565b6000601f19601f8301169050919050565b60006125078261249c565b61251181856124a7565b93506125218185602086016124b8565b61252a816124eb565b840191505092915050565b7f4e487b7100000000000000000000000000000000000000000000000000000000600052602160045260246000fd5b6003811061257557612574612535565b5b50565b600081905061258682612564565b919050565b600061259682612578565b9050919050565b6125a68161258b565b82525050565b600060c0830160008301516125c46000860182612430565b5060208301516125d7602086018261214a565b5060408301516125ea6040860182612471565b5060608301516125fd606086018261248d565b506080830151848203608086015261261582826124fc565b91505060a083015161262a60a086018261259d565b508091505092915050565b6000602082019050818103600083015261264f81846125ac565b905092915050565b600060e0828403121561266d5761266c6121fe565b5b81905092915050565b61267f816123fa565b811461268a57600080fd5b50565b60008135905061269c81612676565b92915050565b600080600080608085870312156126bc576126bb61205e565b5b600085013567ffffffffffffffff8111156126da576126d9612063565b5b6126e687828801612657565b94505060206126f787828801612089565b935050604061270887828801612089565b92505060606127198782880161268d565b91505092959194509250565b600060e08301600083015161273d6000860182612430565b5060208301516127506020860182612430565b506040830151612763604086018261214a565b506060830151612776606086018261214a565b506080830151612789608086018261248d565b5060a083015184820360a08601526127a182826124fc565b91505060c083015184820360c08601526127bb82826124fc565b9150508091505092915050565b600060208201905081810360008301526127e28184612725565b905092915050565b6127f38161230f565b82525050565b600060208201905061280e60008301846127ea565b92915050565b600082825260208201905092915050565b7f506f6c79566f74696e673a2063616c6c6572206973206e6f742074686520706f60008201527f6c6c20636f6f7264696e61746f72000000000000000000000000000000000000602082015250565b6000612881602e83612814565b915061288c82612825565b604082019050919050565b600060208201905081810360008301526128b081612874565b9050919050565b7f506f6c79566f74696e673a20706f6c6c206973206e6f74206f6e676f696e6700600082015250565b60006128ed601f83612814565b91506128f8826128b7565b602082019050919050565b6000602082019050818103600083015261291c816128e0565b9050919050565b7f506f6c79566f74696e673a2077726f6e6720656e6372797074696f6e4b657900600082015250565b6000612959601f83612814565b915061296482612923565b602082019050919050565b600060208201905081810360008301526129888161294c565b9050919050565b7f506f6c79566f74696e673a20706f6c6c2068617320616c72656164792062656560008201527f6e20737461727465640000000000000000000000000000000000000000000000602082015250565b60006129eb602983612814565b91506129f68261298f565b604082019050919050565b60006020820190508181036000830152612a1a816129de565b9050919050565b7f53656e646572206973206e6f742041646d696e2e000000000000000000000000600082015250565b6000612a57601483612814565b9150612a6282612a21565b602082019050919050565b60006020820190508181036000830152612a8681612a4a565b9050919050565b7f506f6c79566f74696e673a4f6e6c792044414f2063726561746572206d616b6560008201527f2070726f706f73616c0000000000000000000000000000000000000000000000602082015250565b6000612ae9602983612814565b9150612af482612a8d565b604082019050919050565b60006020820190508181036000830152612b1881612adc565b9050919050565b60008135612b2c81612319565b80915050919050565b60008160001b9050919050565b60007fffffffffffffffffffffffffffffffffffffffffffffffffffffffffffffffff612b6e84612b35565b9350801983169250808416831791505092915050565b6000612b8f8261230f565b9050919050565b60008160001c9050919050565b6000612bae82612b96565b9050919050565b612bbe82612b84565b612bd1612bca82612ba3565b8354612b42565b8255505050565b60008135612be581612072565b80915050919050565b6000819050919050565b6000612c13612c0e612c0984612068565b612bee565b612068565b9050919050565b6000819050919050565b612c2d82612bf8565b612c40612c3982612c1a565b8354612b42565b8255505050565b612c508161245f565b8114612c5b57600080fd5b50565b60008135612c6b81612c47565b80915050919050565b600073ffffffffffffffffffffffffffffffffffffffff612c9484612b35565b9350801983169250808416831791505092915050565b6000612cc5612cc0612cbb8461243f565b612bee565b61243f565b9050919050565b6000612cd782612caa565b9050919050565b6000612ce982612ccc565b9050919050565b6000819050919050565b612d0382612cde565b612d16612d0f82612cf0565b8354612c74565b8255505050565b612d2681612480565b8114612d3157600080fd5b50565b60008135612d4181612d1d565b80915050919050565b60008160a01b9050919050565b600074ff0000000000000000000000000000000000000000612d7884612d4a565b9350801983169250808416831791505092915050565b6000612da9612da4612d9f84612480565b612bee565b612480565b9050919050565b6000819050919050565b612dc382612d8e565b612dd6612dcf82612db0565b8354612d57565b8255505050565b600080fd5b600080fd5b600080fd5b60008083356001602003843603038112612e0957612e08612ddd565b5b80840192508235915067ffffffffffffffff821115612e2b57612e2a612de2565b5b602083019250600182023603831315612e4757612e46612de7565b5b509250929050565b600082905092915050565b7f4e487b7100000000000000000000000000000000000000000000000000000000600052604160045260246000fd5b7f4e487b7100000000000000000000000000000000000000000000000000000000600052602260045260246000fd5b60006002820490506001821680612ed057607f821691505b60208210811415612ee457612ee3612e89565b5b50919050565b60008190508160005260206000209050919050565b60006020601f8301049050919050565b600082821b905092915050565b600060088302612f4c7fffffffffffffffffffffffffffffffffffffffffffffffffffffffffffffffff82612f0f565b612f568683612f0f565b95508019841693508086168417925050509392505050565b612f7783612bf8565b612f8b612f8382612c1a565b848454612f1c565b825550505050565b600090565b612fa0612f93565b612fab818484612f6e565b505050565b5b81811015612fcf57612fc4600082612f98565b600181019050612fb1565b5050565b601f82111561301457612fe581612eea565b612fee84612eff565b81016020851015612ffd578190505b61301161300985612eff565b830182612fb0565b50505b505050565b600082821c905092915050565b600061303760001984600802613019565b1980831691505092915050565b60006130508383613026565b9150826002028217905092915050565b61306a8383612e4f565b67ffffffffffffffff81111561308357613082612e5a565b5b61308d8254612eb8565b613098828285612fd3565b6000601f8311600181146130c757600084156130b5578287013590505b6130bf8582613044565b865550613127565b601f1984166130d586612eea565b60005b828110156130fd578489013582556001820191506020850194506020810190506130d8565b8683101561311a5784890135613116601f891682613026565b8355505b6001600288020188555050505b50505050505050565b61313b838383613060565b505050565b6003811061314d57600080fd5b50565b6000813561315d81613140565b80915050919050565b600060ff61317384612b35565b9350801983169250808416831791505092915050565b600061319482612578565b9050919050565b6000819050919050565b6131ae82613189565b6131c16131ba8261319b565b8354613166565b8255505050565b6000810160008301806131da81612b1f565b90506131e68184612bb5565b5050506001810160208301806131fb81612bd8565b90506132078184612c24565b50505060028101604083018061321c81612c5e565b90506132288184612cfa565b50505060028101606083018061323d81612d34565b90506132498184612dba565b505050600381016080830161325e8185612dec565b613269818386613130565b505050506004810160a083018061327f81613150565b905061328b81846131a5565b5050505050565b61329c82826131c8565b5050565b7f506f6c79566f74696e673a20706f6c6c206973206e6f7420656e646564000000600082015250565b60006132d6601d83612814565b91506132e1826132a0565b602082019050919050565b60006020820190508181036000830152613305816132c9565b9050919050565b7f506f6c79566f74696e673a20766f74652063616e206f6e6c792062652063617360008201527f7420696e20616e206f6e676f696e6720706f6c6c000000000000000000000000602082015250565b6000613368603483612814565b91506133738261330c565b604082019050919050565b600060208201905081810360008301526133978161335b565b9050919050565b7f4e487b7100000000000000000000000000000000000000000000000000000000600052601160045260246000fd5b60006133d882612068565b91506133e383612068565b9250827fffffffffffffffffffffffffffffffffffffffffffffffffffffffffffffffff038211156134185761341761339e565b5b828201905092915050565b61342c82612d8e565b61343f61343882612db0565b8354613166565b8255505050565b60008101600083018061345881612b1f565b90506134648184612bb5565b50505060018101602083018061347981612b1f565b90506134858184612bb5565b50505060028101604083018061349a81612bd8565b90506134a68184612c24565b5050506003810160608301806134bb81612bd8565b90506134c78184612c24565b5050506004810160808301806134dc81612d34565b90506134e88184613423565b5050506005810160a083016134fd8185612dec565b613508818386613130565b505050506006810160c0830161351e8185612dec565b613529818386613130565b505050505050565b61353b8282613446565b5050565b7f506f6c79566f74696e673a20766f746572732063616e206f6e6c79206265206160008201527f64646564206265666f726520766f74696e670000000000000000000000000000602082015250565b600061359b603283612814565b91506135a68261353f565b604082019050919050565b600060208201905081810360008301526135ca8161358e565b9050919050565b7f506f6c79566f74696e673a20766f7465727320616c726561647920616464656460008201527f2e00000000000000000000000000000000000000000000000000000000000000602082015250565b600061362d602183612814565b9150613638826135d1565b604082019050919050565b6000602082019050818103600083015261365c81613620565b9050919050565b7f53656d6170686f7265436f72653a20796f752063616e6e6f742075736520746860008201527f652073616d65206e756c6c696669657220747769636500000000000000000000602082015250565b60006136bf603683612814565b91506136ca82613663565b604082019050919050565b600060208201905081810360008301526136ee816136b2565b9050919050565b7f4e487b7100000000000000000000000000000000000000000000000000000000600052603260045260246000fd5b600060029050919050565b600081905092915050565b6000819050919050565b6000602082019050919050565b61375a81613724565b613764818461372f565b925061376f8261373a565b8060005b838110156137a05781516137878782612159565b965061379283613744565b925050600181019050613773565b505050505050565b600060029050919050565b600081905092915050565b6000819050919050565b600081905092915050565b6137dc81613724565b6137e681846137c8565b92506137f18261373a565b8060005b838110156138225781516138098782612159565b965061381483613744565b9250506001810190506137f5565b505050505050565b600061383683836137d3565b60408301905092915050565b6000602082019050919050565b613858816137a8565b61386281846137b3565b925061386d826137be565b8060005b8381101561389e578151613885878261382a565b965061389083613842565b925050600181019050613871565b505050505050565b600060049050919050565b600081905092915050565b6000819050919050565b6000602082019050919050565b6138dc816138a6565b6138e681846138b1565b92506138f1826138bc565b8060005b838110156139225781516139098782612159565b9650613914836138c6565b9250506001810190506138f5565b505050505050565b6000610180820190506139406000830187613751565b61394d604083018661384f565b61395a60c0830185613751565b6139686101008301846138d3565b95945050505050565b6000819050919050565b61398c6139878261230f565b613971565b82525050565b600061399e828461397b565b6020820191508190509291505056fea2646970667358221220a99db0a67cde5726505dddfc93fafe186e515e7954984dd68e0ed4fdf5ea85ea64736f6c634300080a0033",
  "immutableReferences": {},
  "source": "// SPDX-License-Identifier: MIT\npragma solidity ^0.8.4;\nimport \"@appliedzkp/semaphore-contracts/base/SemaphoreCore.sol\";\nimport \"@appliedzkp/semaphore-contracts/interfaces/IVerifier.sol\";\nimport \"@appliedzkp/semaphore-contracts/base/SemaphoreConstants.sol\";\nimport \"../interface/IPolyZKVote.sol\";\n\ncontract PolyZKVote is IPolyZKVote, SemaphoreCore {\n    mapping(uint256 => Group) groups;\n    uint256 GroupCount;\n    address admin;\n    uint256[] identity;\n    mapping(uint256 => MemeberToIdentity) memberToidentity;\n    mapping(uint256 => MemberToGroup) joinedDAO;\n    mapping(uint256 => MemberToGroup) createdDAO;\n    mapping(uint256 => ProposalToGroup) proposalTogroup;\n    mapping(uint256 => bool) voterAdded;\n    mapping(uint256 => mapping(uint256 => MemeberToIdentity)) proposalTovoter;\n    mapping(uint256=> mapping(uint256 => bool)) identityToCreatedDAO;\n    mapping(uint8 => IVerifier) verifiers;\n    mapping(uint256 => mapping(uint256 => Proposal)) proposals;\n    mapping(uint256 => mapping(uint256 => uint256)) encryptionKey;\n    mapping(uint256 => mapping(uint256 => uint256)) vote;\n    mapping(uint256 => mapping(uint256 => mapping(uint256 => bytes32))) userVotes;\n    modifier onlySupportedDepth(uint8 depth) {\n        require(\n            address(verifiers[depth]) != address(0),\n            \"AnontVote: tree depth is not supported\"\n        );\n        _;\n    }\n\n    constructor(Verifier[] memory _verifiers) {\n        for (uint8 i = 0; i < _verifiers.length; i++) {\n            verifiers[_verifiers[i].merkleTreeDepth] = IVerifier(\n                _verifiers[i].contractAddress\n            );\n        }\n        admin = msg.sender;\n    }\n\n    modifier onlyAdmin(address _sender) {\n        require(admin == _sender, \"Sender is not Admin.\");\n        _;\n    }\n\n    modifier onlyCoordinator(uint256 groupId , uint256 pollId) {\n        require(proposals[groupId][pollId].coordinator == msg.sender, \"PolyVoting: caller is not the poll coordinator\");\n        _;\n    }\n\n    function getRoot(uint256 groupId) internal view returns (uint256) {\n        return groups[groupId].root;\n    }\n\n    function getDepth(uint256 groupId) internal view returns (uint8) {\n        return groups[groupId].depth;\n    }\n\n    function getGroup(uint256 groupId) public view override onlyAdmin(msg.sender) returns(Group memory group){\n        return(groups[groupId]);\n    }\n\n    function getProposal(uint256 groupId,uint256 pollId) public view override onlyAdmin(msg.sender) returns(Proposal memory proposal) {\n        return (proposals[groupId][pollId]);\n    }\n\n    function updateGroup(Group calldata _group,uint256 _groupId,uint256 _identity,bool _type) public override onlyAdmin(msg.sender)\n    {   \n        groups[_groupId] = _group;\n\n        if (_groupId == 1) {\n            identity.push(_identity);\n        } else {\n\n            if(_type == true){\n                \n                createdDAO[_identity].groupId.push(_groupId);\n                identityToCreatedDAO[_identity][_groupId] = true;\n            }\n            memberToidentity[_groupId].identity.push(_identity);\n            joinedDAO[_identity].groupId.push(_groupId);\n            \n        }\n    }\n\n    // function addIdentity(uint256 _identity) public override onlyAdmin(msg.sender) {\n    //     identity.push(_identity);\n    // }\n\n    // function addMemberToGroup(uint256 groupId,uint256 _identity) public override onlyAdmin(msg.sender) {\n    //     memberToidentity[groupId].identity.push(_identity);\n    //     joinedDAO[_identity].groupId.push(groupId);\n    // }\n\n    function getJoinedDAOMember(uint256 _identity) public view override onlyAdmin(msg.sender) returns(uint256[] memory _allGroup){\n        return(joinedDAO[_identity].groupId);\n    }\n    function getCreatedDAOMember(uint256 _identity) public view override onlyAdmin(msg.sender) returns(uint256[] memory _allGroup){\n        return(createdDAO[_identity].groupId);\n    }\n\n    function getGroupProposal(uint256 _groupId) public view override onlyAdmin(msg.sender) returns(uint256[] memory _allProposal) {\n        return(proposalTogroup[_groupId].proposalId);\n    }\n\n    function getProposalTovoter(uint256 _groupId,uint256 _pollId) public view override onlyAdmin(msg.sender) returns(uint256[] memory _allVoter) {\n        return(proposalTovoter[_groupId][_pollId].identity);\n    }\n\n    function addedVoterStatus(uint256 _pollId) public view override onlyAdmin(msg.sender) returns(bool status){\n        return(voterAdded[_pollId]);\n    }\n\n    function getIdentity() public view override onlyAdmin(msg.sender) returns(uint256[] memory _allIdentity){\n        return (identity);\n    }\n\n    function getMemberToGroup(uint256 groupId) public view override onlyAdmin(msg.sender) returns (uint256[] memory _groupMember){\n        return(memberToidentity[groupId].identity);\n    }\n\n    function createPoll(\n        uint256 _identity,\n        uint256 groupId,\n        uint256 _pollId,\n        Proposal calldata _proposal\n    ) public override {\n\n        require(identityToCreatedDAO[_identity][groupId],\"PolyVoting:Only DAO creater make proposal\");\n\n        proposals[groupId][_pollId] = _proposal;\n        proposalTogroup[groupId].proposalId.push(_pollId);\n    }\n\n    function addVoter(uint256 groupId,uint256 pollId, uint256 _root) public override onlyCoordinator(groupId,pollId) {\n        require(proposals[groupId][pollId].state == PollState.Created, \"PolyVoting: voters can only be added before voting\");\n        require(!voterAdded[pollId],\"PolyVoting: voters already added.\");\n\n\n        voterAdded[pollId] = true;\n        proposals[groupId][pollId].root = _root;\n    }\n\n    \n    function startPoll(uint256 groupId,uint256 pollId, uint256 _encryptionKey) public override onlyCoordinator(groupId,pollId) {\n        require(proposals[groupId][pollId].state == PollState.Created, \"PolyVoting: poll has already been started\");\n\n        proposals[groupId][pollId].state = PollState.Ongoing;\n        encryptionKey[groupId][pollId] = _encryptionKey;\n\n    }\n\n    function castVote(\n        bytes32 _vote,\n        uint256 _identity,\n        uint256 nullifierHash,\n        uint256 pollId,\n        uint256 groupId,\n        uint256[8] calldata proof\n    ) public override onlyAdmin(msg.sender) {\n        Proposal memory _proposal = proposals[groupId][pollId];\n\n        require(_proposal.state == PollState.Ongoing, \"PolyVoting: vote can only be cast in an ongoing poll\");\n\n        uint8 depth = _proposal.depth;\n        uint256 root = _proposal.root;\n        IVerifier verifier = verifiers[depth];\n\n        _verifyProof(_vote, root, nullifierHash, pollId, proof, verifier);\n\n        // Prevent double-voting (nullifierHash = hash(pollId + identityNullifier)).\n        _saveNullifierHash(nullifierHash);\n        vote[groupId][pollId] += 1;\n        userVotes[_identity][groupId][pollId] = _vote;\n\n    }\n\n    function endPoll(uint256 groupId,uint256 pollId, uint256 decryptionKey) public override onlyCoordinator(groupId,pollId) {\n        require(proposals[groupId][pollId].state == PollState.Ongoing, \"PolyVoting: poll is not ongoing\");\n        require(encryptionKey[groupId][pollId] == decryptionKey,\"PolyVoting: wrong encryptionKey\");\n        proposals[groupId][pollId].state = PollState.Ended;\n\n        \n    }\n\n    function getVote(uint256 groupId,uint256 pollId) public view override onlyAdmin(msg.sender) returns(uint256 _vote){\n        require(proposals[groupId][pollId].state == PollState.Ended,\"PolyVoting: poll is not ended\");\n        return vote[groupId][pollId];\n    }\n\n    function getUserRating(uint256 _identity,uint256 groupId,uint256 pollId) public view override onlyAdmin(msg.sender) returns(bytes32 _vote){\n        return userVotes[_identity][groupId][pollId];\n    }\n}\n",
  "sourcePath": "F:\\Blockchain\\PolyZKVote\\Backend\\contracts\\PolyZKVote.sol",
  "compiler": {
    "name": "solc",
    "version": "0.8.10+commit.fc410830.Emscripten.clang"
  },
  "schemaVersion": "3.4.3",
  "updatedAt": "2022-08-20T11:46:42.710Z",
  "networkType": "ethereum",
  "devdoc": {
    "kind": "dev",
    "methods": {},
    "version": 1
  },
  "userdoc": {
    "events": {
      "NullifierHashAdded(uint256)": {
        "notice": "Emitted when a proof is verified correctly and a new nullifier hash is added."
      }
    },
    "kind": "user",
    "methods": {},
    "version": 1
  }
}